{
  "contractName": "Buy",
  "abi": [
    {
      "inputs": [],
      "stateMutability": "nonpayable",
      "type": "constructor"
    },
    {
      "anonymous": false,
      "inputs": [
        {
          "indexed": false,
          "internalType": "address",
          "name": "mainContractAddress",
          "type": "address"
        }
      ],
      "name": "MainContractSet",
      "type": "event"
    },
    {
      "anonymous": false,
      "inputs": [
        {
          "indexed": false,
          "internalType": "address",
          "name": "caller",
          "type": "address"
        },
        {
          "indexed": false,
          "internalType": "address",
          "name": "newOwner",
          "type": "address"
        }
      ],
      "name": "OwnerChainged",
      "type": "event"
    },
    {
      "anonymous": false,
      "inputs": [
        {
          "indexed": false,
          "internalType": "address",
          "name": "owner",
          "type": "address"
        }
      ],
      "name": "constructorSet",
      "type": "event"
    },
    {
      "anonymous": false,
      "inputs": [
        {
          "indexed": false,
          "internalType": "address",
          "name": "buyerAddress",
          "type": "address"
        }
      ],
      "name": "productPurchased",
      "type": "event"
    },
    {
      "inputs": [
        {
          "internalType": "address",
          "name": "_address",
          "type": "address"
        }
      ],
      "name": "setMainContract",
      "outputs": [],
      "stateMutability": "nonpayable",
      "type": "function"
    },
    {
      "inputs": [
        {
          "internalType": "address",
          "name": "_newOwner",
          "type": "address"
        }
      ],
      "name": "changeOwner",
      "outputs": [],
      "stateMutability": "nonpayable",
      "type": "function"
    },
    {
      "inputs": [
        {
          "internalType": "uint256",
          "name": "_secretId",
          "type": "uint256"
        }
      ],
      "name": "buyProduct",
      "outputs": [],
      "stateMutability": "nonpayable",
      "type": "function"
    }
  ],
  "bytecode": "0x608060405234801561001057600080fd5b50336000806101000a81548173ffffffffffffffffffffffffffffffffffffffff021916908373ffffffffffffffffffffffffffffffffffffffff1602179055507f554313c8aee45460ac12e0a92818ed96443f15b4b0b008141f8db8c3f5fa6eef60008054906101000a900473ffffffffffffffffffffffffffffffffffffffff16604051808273ffffffffffffffffffffffffffffffffffffffff16815260200191505060405180910390a161050a806100cd6000396000f3fe608060405234801561001057600080fd5b50600436106100415760003560e01c80633ded33bc146100465780638642269e1461008a578063a6f9dae1146100b8575b600080fd5b6100886004803603602081101561005c57600080fd5b81019080803573ffffffffffffffffffffffffffffffffffffffff1690602001909291905050506100fc565b005b6100b6600480360360208110156100a057600080fd5b8101908080359060200190929190505050610231565b005b6100fa600480360360208110156100ce57600080fd5b81019080803573ffffffffffffffffffffffffffffffffffffffff16906020019092919050505061035e565b005b60008054906101000a900473ffffffffffffffffffffffffffffffffffffffff1673ffffffffffffffffffffffffffffffffffffffff163373ffffffffffffffffffffffffffffffffffffffff16146101a0576040517f08c379a00000000000000000000000000000000000000000000000000000000081526004018080602001828103825260248152602001806104b16024913960400191505060405180910390fd5b80600160006101000a81548173ffffffffffffffffffffffffffffffffffffffff021916908373ffffffffffffffffffffffffffffffffffffffff1602179055507f8164cbca0aa7ba76b6fcc386e36a48c8553ee2dab90c962ddc7a4e914186d75d81604051808273ffffffffffffffffffffffffffffffffffffffff16815260200191505060405180910390a150565b60008160405160200180828152602001915050604051602081830303815290604052805190602001209050600160009054906101000a900473ffffffffffffffffffffffffffffffffffffffff1673ffffffffffffffffffffffffffffffffffffffff1663943a4dfc826040518263ffffffff1660e01b815260040180828152602001915050602060405180830381600087803b1580156102d157600080fd5b505af11580156102e5573d6000803e3d6000fd5b505050506040513d60208110156102fb57600080fd5b8101908080519060200190929190505050507ff162f49f8c5f896aa8e830aa684072ba77ada19a8dd8596b9d3b38a8b0d4b52833604051808273ffffffffffffffffffffffffffffffffffffffff16815260200191505060405180910390a15050565b60008054906101000a900473ffffffffffffffffffffffffffffffffffffffff1673ffffffffffffffffffffffffffffffffffffffff163373ffffffffffffffffffffffffffffffffffffffff1614610402576040517f08c379a00000000000000000000000000000000000000000000000000000000081526004018080602001828103825260248152602001806104b16024913960400191505060405180910390fd5b806000806101000a81548173ffffffffffffffffffffffffffffffffffffffff021916908373ffffffffffffffffffffffffffffffffffffffff1602179055507fc662c959b5a82c6f8f14f9a8b94a889c1a45d4f52573dd8088f78fe5fbe236a63382604051808373ffffffffffffffffffffffffffffffffffffffff1681526020018273ffffffffffffffffffffffffffffffffffffffff1681526020019250505060405180910390a15056fe596f752063616e206e6f7420736574206d61696e636f6e74726163742061646472657373a2646970667358221220c3454d01a7cdd12017c1eb8e8a121d78ed9665b54b84ca05eff295cda19082ca64736f6c63430007040033",
  "immutableReferences": {},
  "source": "// SPDX-License-Identifier: MIT\npragma solidity >=0.7.0;\n\ncontract CounterfeitInterphase{\n    function buyProduct(bytes32 _secretId) external returns(bool) {}\n}\n\ncontract Buy{\n    \n    event productPurchased(address buyerAddress);\n    event MainContractSet(address mainContractAddress);\n    event OwnerChainged(address caller, address newOwner);\n    event constructorSet(address owner);\n\n    address private owner;\n    CounterfeitInterphase C;\n\n    constructor(){\n        owner = msg.sender;\n        emit constructorSet(owner);\n    }\n    modifier onlyOwner(){\n        require(msg.sender == owner,\"You can not set maincontract address\");\n        _;\n    }\n    function setMainContract( address _address) onlyOwner external {\n        C = CounterfeitInterphase(_address);\n        emit MainContractSet(_address);\n    }\n    function changeOwner(address _newOwner) onlyOwner external{\n        owner = _newOwner;\n        emit OwnerChainged(msg.sender,_newOwner);\n    }\n\n    function buyProduct(uint256 _secretId) external {\n        bytes32 hash = keccak256(abi.encodePacked(_secretId));\n        C.buyProduct(hash);\n        emit productPurchased(msg.sender);\n    }\n\n}\n",
  "sourcePath": "C:\\Users\\BornPsych\\Documents\\GITHUB\\Project Phase\\counterfeit-product-detection-main\\contracts\\Buy.sol",
  "compiler": {
    "name": "solc",
    "version": "0.7.4+commit.3f05b770.Emscripten.clang"
  },
  "schemaVersion": "3.4.10",
  "updatedAt": "2022-11-01T19:51:05.949Z",
  "networkType": "ethereum",
  "devdoc": {
    "kind": "dev",
    "methods": {},
    "version": 1
  },
  "userdoc": {
    "kind": "user",
    "methods": {},
    "version": 1
  }
}