{
  "contractName": "Counterfeit",
  "abi": [
    {
      "inputs": [],
      "stateMutability": "nonpayable",
      "type": "constructor"
    },
    {
      "anonymous": false,
      "inputs": [
        {
          "indexed": true,
          "internalType": "address",
          "name": "previousOwner",
          "type": "address"
        },
        {
          "indexed": true,
          "internalType": "address",
          "name": "newOwner",
          "type": "address"
        }
      ],
      "name": "OwnershipTransferred",
      "type": "event"
    },
    {
      "anonymous": false,
      "inputs": [
        {
          "indexed": false,
          "internalType": "address",
          "name": "setter",
          "type": "address"
        }
      ],
      "name": "constructorSet",
      "type": "event"
    },
    {
      "anonymous": false,
      "inputs": [
        {
          "indexed": false,
          "internalType": "uint256",
          "name": "productId",
          "type": "uint256"
        },
        {
          "indexed": false,
          "internalType": "address",
          "name": "owner",
          "type": "address"
        }
      ],
      "name": "newProductAdded",
      "type": "event"
    },
    {
      "anonymous": false,
      "inputs": [
        {
          "indexed": false,
          "internalType": "string",
          "name": "name",
          "type": "string"
        },
        {
          "indexed": false,
          "internalType": "address",
          "name": "seller",
          "type": "address"
        }
      ],
      "name": "newSellerRegistered",
      "type": "event"
    },
    {
      "anonymous": false,
      "inputs": [
        {
          "indexed": false,
          "internalType": "address",
          "name": "buyer",
          "type": "address"
        }
      ],
      "name": "productPurchased",
      "type": "event"
    },
    {
      "anonymous": false,
      "inputs": [
        {
          "indexed": false,
          "internalType": "uint256",
          "name": "productId",
          "type": "uint256"
        },
        {
          "indexed": false,
          "internalType": "address",
          "name": "buyer",
          "type": "address"
        }
      ],
      "name": "productPurchasedByConsumer",
      "type": "event"
    },
    {
      "anonymous": false,
      "inputs": [
        {
          "indexed": false,
          "internalType": "uint256",
          "name": "productId",
          "type": "uint256"
        },
        {
          "indexed": false,
          "internalType": "address",
          "name": "seller",
          "type": "address"
        },
        {
          "indexed": false,
          "internalType": "address",
          "name": "buyer",
          "type": "address"
        }
      ],
      "name": "productSoldSuccessfully",
      "type": "event"
    },
    {
      "anonymous": false,
      "inputs": [
        {
          "indexed": false,
          "internalType": "address",
          "name": "setter",
          "type": "address"
        },
        {
          "indexed": false,
          "internalType": "address",
          "name": "setTo",
          "type": "address"
        }
      ],
      "name": "sideContractSet",
      "type": "event"
    },
    {
      "inputs": [],
      "name": "owner",
      "outputs": [
        {
          "internalType": "address",
          "name": "",
          "type": "address"
        }
      ],
      "stateMutability": "view",
      "type": "function",
      "constant": true
    },
    {
      "inputs": [
        {
          "internalType": "address",
          "name": "newOwner",
          "type": "address"
        }
      ],
      "name": "transferOwnership",
      "outputs": [],
      "stateMutability": "nonpayable",
      "type": "function"
    },
    {
      "inputs": [
        {
          "internalType": "address",
          "name": "_sideContract",
          "type": "address"
        }
      ],
      "name": "setSideContract",
      "outputs": [],
      "stateMutability": "nonpayable",
      "type": "function"
    },
    {
      "inputs": [
        {
          "internalType": "string",
          "name": "_name",
          "type": "string"
        },
        {
          "internalType": "string",
          "name": "_details",
          "type": "string"
        }
      ],
      "name": "registerSeller",
      "outputs": [
        {
          "internalType": "string",
          "name": "status",
          "type": "string"
        }
      ],
      "stateMutability": "nonpayable",
      "type": "function"
    },
    {
      "inputs": [
        {
          "internalType": "bytes32",
          "name": "_secretId",
          "type": "bytes32"
        }
      ],
      "name": "buyProduct",
      "outputs": [
        {
          "internalType": "bool",
          "name": "",
          "type": "bool"
        }
      ],
      "stateMutability": "nonpayable",
      "type": "function"
    },
    {
      "inputs": [],
      "name": "getAllProducts",
      "outputs": [
        {
          "components": [
            {
              "internalType": "uint256",
              "name": "productId",
              "type": "uint256"
            },
            {
              "internalType": "uint256",
              "name": "price",
              "type": "uint256"
            },
            {
              "internalType": "string",
              "name": "name",
              "type": "string"
            },
            {
              "internalType": "bool",
              "name": "isSold",
              "type": "bool"
            }
          ],
          "internalType": "struct Counterfeit.Product[]",
          "name": "",
          "type": "tuple[]"
        }
      ],
      "stateMutability": "view",
      "type": "function",
      "constant": true
    },
    {
      "inputs": [
        {
          "internalType": "uint256",
          "name": "_productId",
          "type": "uint256"
        },
        {
          "internalType": "address",
          "name": "_buyerAddress",
          "type": "address"
        }
      ],
      "name": "sellProduct",
      "outputs": [
        {
          "internalType": "bool",
          "name": "",
          "type": "bool"
        }
      ],
      "stateMutability": "nonpayable",
      "type": "function"
    },
    {
      "inputs": [
        {
          "internalType": "uint256",
          "name": "_productId",
          "type": "uint256"
        },
        {
          "internalType": "bytes32",
          "name": "_secretId",
          "type": "bytes32"
        },
        {
          "internalType": "uint256",
          "name": "_price",
          "type": "uint256"
        },
        {
          "internalType": "string",
          "name": "_name",
          "type": "string"
        }
      ],
      "name": "addProduct",
      "outputs": [
        {
          "internalType": "bool",
          "name": "",
          "type": "bool"
        }
      ],
      "stateMutability": "nonpayable",
      "type": "function"
    },
    {
      "inputs": [
        {
          "internalType": "uint256",
          "name": "_productId",
          "type": "uint256"
        }
      ],
      "name": "productSeller",
      "outputs": [
        {
          "internalType": "string",
          "name": "name",
          "type": "string"
        },
        {
          "internalType": "string",
          "name": "details",
          "type": "string"
        }
      ],
      "stateMutability": "view",
      "type": "function",
      "constant": true
    },
    {
      "inputs": [
        {
          "internalType": "uint256",
          "name": "_productId",
          "type": "uint256"
        }
      ],
      "name": "productDetails",
      "outputs": [
        {
          "internalType": "string",
          "name": "name",
          "type": "string"
        },
        {
          "internalType": "uint256",
          "name": "price",
          "type": "uint256"
        },
        {
          "internalType": "bool",
          "name": "isSold",
          "type": "bool"
        }
      ],
      "stateMutability": "view",
      "type": "function",
      "constant": true
    },
    {
      "inputs": [],
      "name": "productLength",
      "outputs": [
        {
          "internalType": "uint256",
          "name": "_productArrayLength",
          "type": "uint256"
        }
      ],
      "stateMutability": "view",
      "type": "function",
      "constant": true
    },
    {
      "inputs": [],
      "name": "sellersLength",
      "outputs": [
        {
          "internalType": "uint256",
          "name": "_sellerArrayLength",
          "type": "uint256"
        }
      ],
      "stateMutability": "view",
      "type": "function",
      "constant": true
    }
  ],
  "bytecode": "0x60806040526000600160006101000a81548173ffffffffffffffffffffffffffffffffffffffff021916908373ffffffffffffffffffffffffffffffffffffffff1602179055503480156200005357600080fd5b506000620000666200031960201b60201c565b9050806000806101000a81548173ffffffffffffffffffffffffffffffffffffffff021916908373ffffffffffffffffffffffffffffffffffffffff1602179055508073ffffffffffffffffffffffffffffffffffffffff16600073ffffffffffffffffffffffffffffffffffffffff167f8be0079c531659141344cd1fd0a4f28419497f9722a3daafe3b4186f6b6457e060405160405180910390a3506002604051806080016040528060008152602001600081526020016040518060400160405280600c81526020017f64756d6d7950726f647563740000000000000000000000000000000000000000815250815260200160011515815250908060018154018082558091505060019003906000526020600020906004020160009091909190915060008201518160000155602082015181600101556040820151816002019080519060200190620001bc92919062000321565b5060608201518160030160006101000a81548160ff021916908315150217905550505060036040518060600160405280600081526020016040518060400160405280600b81526020017f64756d6d7953656c6c657200000000000000000000000000000000000000000081525081526020016040518060400160405280600b81526020017f64756d6d7953656c6c65720000000000000000000000000000000000000000008152508152509080600181540180825580915050600190039060005260206000209060030201600090919091909150600082015181600001556020820151816001019080519060200190620002b892919062000321565b506040820151816002019080519060200190620002d792919062000321565b5050507f554313c8aee45460ac12e0a92818ed96443f15b4b0b008141f8db8c3f5fa6eef336040516200030b9190620003e8565b60405180910390a162000461565b600033905090565b828054600181600116156101000203166002900490600052602060002090601f016020900481019282620003595760008555620003a5565b82601f106200037457805160ff1916838001178555620003a5565b82800160010185558215620003a5579182015b82811115620003a457825182559160200191906001019062000387565b5b509050620003b49190620003b8565b5090565b5b80821115620003d3576000816000905550600101620003b9565b5090565b620003e28162000425565b82525050565b6000602082019050620003ff6000830184620003d7565b92915050565b600073ffffffffffffffffffffffffffffffffffffffff82169050919050565b6000620004328262000439565b9050919050565b600062000446826200044d565b9050919050565b60006200045a8262000405565b9050919050565b6128dd80620004716000396000f3fe608060405234801561001057600080fd5b50600436106100b45760003560e01c80638da5cb5b116100715780638da5cb5b146101ca578063943a4dfc146101e8578063a370511614610218578063bbcd300b14610236578063d724dea614610254578063f2fde38b14610270576100b4565b806302ee3a52146100b95780630b569140146100d757806317a147611461010757806329fab2bb14610137578063318fd93d1461016857806348f7eb3014610198575b600080fd5b6100c161028c565b6040516100ce9190612359565b60405180910390f35b6100f160048036038101906100ec9190611d00565b61052f565b6040516100fe919061237b565b60405180910390f35b610121600480360381019061011c9190611d3c565b610917565b60405161012e919061237b565b60405180910390f35b610151600480360381019061014c9190611cd7565b610c55565b60405161015f9291906123e8565b60405180910390f35b610182600480360381019061017d9190611c6b565b610eac565b60405161018f9190612396565b60405180910390f35b6101b260048036038101906101ad9190611cd7565b611080565b6040516101c19392919061241f565b60405180910390f35b6101d26111bc565b6040516101df9190612315565b60405180910390f35b61020260048036038101906101fd9190611c42565b6111e5565b60405161020f919061237b565b60405180910390f35b61022061158f565b60405161022d919061261d565b60405180910390f35b61023e611664565b60405161024b919061261d565b60405180910390f35b61026e60048036038101906102699190611c19565b611739565b005b61028a60048036038101906102859190611c19565b61187d565b005b60606000600760003373ffffffffffffffffffffffffffffffffffffffff1673ffffffffffffffffffffffffffffffffffffffff16815260200190815260200160002054905060008111610315576040517f08c379a000000000000000000000000000000000000000000000000000000000815260040161030c9061251d565b60405180910390fd5b60608167ffffffffffffffff8111801561032e57600080fd5b5060405190808252806020026020018201604052801561036857816020015b610355611a90565b81526020019060019003908161034d5790505b5090506000805b600280549050811015610525573373ffffffffffffffffffffffffffffffffffffffff1660096000600284815481106103a457fe5b906000526020600020906004020160000154815260200190815260200160002060009054906101000a900473ffffffffffffffffffffffffffffffffffffffff1673ffffffffffffffffffffffffffffffffffffffff161415610518576002818154811061040e57fe5b90600052602060002090600402016040518060800160405290816000820154815260200160018201548152602001600282018054600181600116156101000203166002900480601f0160208091040260200160405190810160405280929190818152602001828054600181600116156101000203166002900480156104d45780601f106104a9576101008083540402835291602001916104d4565b820191906000526020600020905b8154815290600101906020018083116104b757829003601f168201915b505050505081526020016003820160009054906101000a900460ff16151515158152505083838151811061050457fe5b602002602001018190525081806001019250505b808060010191505061036f565b5081935050505090565b60008260006009600083815260200190815260200160002060009054906101000a900473ffffffffffffffffffffffffffffffffffffffff1690508073ffffffffffffffffffffffffffffffffffffffff163373ffffffffffffffffffffffffffffffffffffffff16146105d8576040517f08c379a00000000000000000000000000000000000000000000000000000000081526004016105cf9061247d565b60405180910390fd5b8460006005600083815260200190815260200160002054905060006002828154811061060057fe5b906000526020600020906004020160030160009054906101000a900460ff1690506000151581151514610668576040517f08c379a000000000000000000000000000000000000000000000000000000000815260040161065f906124bd565b60405180910390fd5b8673ffffffffffffffffffffffffffffffffffffffff163373ffffffffffffffffffffffffffffffffffffffff1614156106d7576040517f08c379a00000000000000000000000000000000000000000000000000000000081526004016106ce9061255d565b60405180910390fd5b6000600760003373ffffffffffffffffffffffffffffffffffffffff1673ffffffffffffffffffffffffffffffffffffffff1681526020019081526020016000205411610759576040517f08c379a00000000000000000000000000000000000000000000000000000000081526004016107509061259d565b60405180910390fd5b6000600460008973ffffffffffffffffffffffffffffffffffffffff1673ffffffffffffffffffffffffffffffffffffffff1681526020019081526020016000205414156107dc576040517f08c379a00000000000000000000000000000000000000000000000000000000081526004016107d3906124fd565b60405180910390fd5b86600960008a815260200190815260200160002060006101000a81548173ffffffffffffffffffffffffffffffffffffffff021916908373ffffffffffffffffffffffffffffffffffffffff160217905550600760003373ffffffffffffffffffffffffffffffffffffffff1673ffffffffffffffffffffffffffffffffffffffff1681526020019081526020016000206000815480929190600190039190505550600760008873ffffffffffffffffffffffffffffffffffffffff1673ffffffffffffffffffffffffffffffffffffffff168152602001908152602001600020600081548092919060010191905055507ff97c1f1de80ef41c13355fa2353dfcae96536bdf6fd7db677dc26d63bf92c6d888338960405161090093929190612661565b60405180910390a160019550505050505092915050565b6000610921611a88565b73ffffffffffffffffffffffffffffffffffffffff1660008054906101000a900473ffffffffffffffffffffffffffffffffffffffff1673ffffffffffffffffffffffffffffffffffffffff16146109e1576040517f08c379a00000000000000000000000000000000000000000000000000000000081526004018080602001828103825260208152602001807f4f776e61626c653a2063616c6c6572206973206e6f7420746865206f776e657281525060200191505060405180910390fd5b6000600560008781526020019081526020016000205414610a37576040517f08c379a0000000000000000000000000000000000000000000000000000000008152600401610a2e906124dd565b60405180910390fd5b6000600660008681526020019081526020016000205414610a8d576040517f08c379a0000000000000000000000000000000000000000000000000000000008152600401610a84906125fd565b60405180910390fd5b336009600087815260200190815260200160002060006101000a81548173ffffffffffffffffffffffffffffffffffffffff021916908373ffffffffffffffffffffffffffffffffffffffff160217905550600760003373ffffffffffffffffffffffffffffffffffffffff1673ffffffffffffffffffffffffffffffffffffffff168152602001908152602001600020600081548092919060010191905055506002604051806080016040528087815260200185815260200184815260200160001515815250908060018154018082558091505060019003906000526020600020906004020160009091909190915060008201518160000155602082015181600101556040820151816002019080519060200190610bad929190611aba565b5060608201518160030160006101000a81548160ff0219169083151502179055505050600160028054905003600560008781526020019081526020016000208190555060016002805490500360066000868152602001908152602001600020819055507fbd8ac5c2f6ef8dd241a94a60d0a2a959593fc3457eda34e09a7d4f605366365c8533604051610c41929190612638565b60405180910390a160019050949350505050565b60608060006009600085815260200190815260200160002060009054906101000a900473ffffffffffffffffffffffffffffffffffffffff1690506000600460008373ffffffffffffffffffffffffffffffffffffffff1673ffffffffffffffffffffffffffffffffffffffff1681526020019081526020016000205490506000811415610d18576040517f08c379a0000000000000000000000000000000000000000000000000000000008152600401610d0f9061249d565b60405180910390fd5b610d20611b48565b60038281548110610d2d57fe5b906000526020600020906003020160405180606001604052908160008201548152602001600182018054600181600116156101000203166002900480601f016020809104026020016040519081016040528092919081815260200182805460018160011615610100020316600290048015610de95780601f10610dbe57610100808354040283529160200191610de9565b820191906000526020600020905b815481529060010190602001808311610dcc57829003601f168201915b50505050508152602001600282018054600181600116156101000203166002900480601f016020809104026020016040519081016040528092919081815260200182805460018160011615610100020316600290048015610e8b5780601f10610e6057610100808354040283529160200191610e8b565b820191906000526020600020905b815481529060010190602001808311610e6e57829003601f168201915b50505050508152505090508060200151816040015194509450505050915091565b60606000600460003373ffffffffffffffffffffffffffffffffffffffff1673ffffffffffffffffffffffffffffffffffffffff1681526020019081526020016000205414610f30576040517f08c379a0000000000000000000000000000000000000000000000000000000008152600401610f279061257d565b60405180910390fd5b6003604051806060016040528060008152602001858152602001848152509080600181540180825580915050600190039060005260206000209060030201600090919091909150600082015181600001556020820151816001019080519060200190610f9d929190611aba565b506040820151816002019080519060200190610fba929190611aba565b505050600160038054905003600460003373ffffffffffffffffffffffffffffffffffffffff1673ffffffffffffffffffffffffffffffffffffffff168152602001908152602001600020819055507fc0e3a1418d09208edafdb4d540cdf156f1501473f19083535aa9886cec492b49833360405161103a9291906123b8565b60405180910390a16040518060400160405280601e81526020017f53656c6c65722072656769737465726564207375636365737366756c6c790000815250905092915050565b60606000806000600560008681526020019081526020016000205490506110a5611a90565b600282815481106110b257fe5b90600052602060002090600402016040518060800160405290816000820154815260200160018201548152602001600282018054600181600116156101000203166002900480601f0160208091040260200160405190810160405280929190818152602001828054600181600116156101000203166002900480156111785780601f1061114d57610100808354040283529160200191611178565b820191906000526020600020905b81548152906001019060200180831161115b57829003601f168201915b505050505081526020016003820160009054906101000a900460ff161515151581525050905080604001518160200151826060015194509450945050509193909250565b60008060009054906101000a900473ffffffffffffffffffffffffffffffffffffffff16905090565b6000600160009054906101000a900473ffffffffffffffffffffffffffffffffffffffff1673ffffffffffffffffffffffffffffffffffffffff163373ffffffffffffffffffffffffffffffffffffffff1614611277576040517f08c379a000000000000000000000000000000000000000000000000000000000815260040161126e9061253d565b60405180910390fd5b600073ffffffffffffffffffffffffffffffffffffffff16600160009054906101000a900473ffffffffffffffffffffffffffffffffffffffff1673ffffffffffffffffffffffffffffffffffffffff161415611309576040517f08c379a0000000000000000000000000000000000000000000000000000000008152600401611300906125dd565b60405180910390fd5b60006006600084815260200190815260200160002054905060006002828154811061133057fe5b906000526020600020906004020160000154905060006009600083815260200190815260200160002060009054906101000a900473ffffffffffffffffffffffffffffffffffffffff1690506000600760008373ffffffffffffffffffffffffffffffffffffffff1673ffffffffffffffffffffffffffffffffffffffff16815260200190815260200160002054116113fe576040517f08c379a00000000000000000000000000000000000000000000000000000000081526004016113f59061245d565b60405180910390fd5b600015156002848154811061140f57fe5b906000526020600020906004020160030160009054906101000a900460ff16151514611470576040517f08c379a0000000000000000000000000000000000000000000000000000000008152600401611467906125bd565b60405180910390fd5b60016002848154811061147f57fe5b906000526020600020906004020160030160006101000a81548160ff02191690831515021790555060006009600084815260200190815260200160002060006101000a81548173ffffffffffffffffffffffffffffffffffffffff021916908373ffffffffffffffffffffffffffffffffffffffff160217905550600760008273ffffffffffffffffffffffffffffffffffffffff1673ffffffffffffffffffffffffffffffffffffffff16815260200190815260200160002060008154809291906001900391905055507f53b435a434268e3562a0a9c12fa3245e841643c0a168cc7fff1fac5de6b30e90823360405161157b929190612638565b60405180910390a160019350505050919050565b6000611599611a88565b73ffffffffffffffffffffffffffffffffffffffff1660008054906101000a900473ffffffffffffffffffffffffffffffffffffffff1673ffffffffffffffffffffffffffffffffffffffff1614611659576040517f08c379a00000000000000000000000000000000000000000000000000000000081526004018080602001828103825260208152602001807f4f776e61626c653a2063616c6c6572206973206e6f7420746865206f776e657281525060200191505060405180910390fd5b600380549050905090565b600061166e611a88565b73ffffffffffffffffffffffffffffffffffffffff1660008054906101000a900473ffffffffffffffffffffffffffffffffffffffff1673ffffffffffffffffffffffffffffffffffffffff161461172e576040517f08c379a00000000000000000000000000000000000000000000000000000000081526004018080602001828103825260208152602001807f4f776e61626c653a2063616c6c6572206973206e6f7420746865206f776e657281525060200191505060405180910390fd5b600280549050905090565b611741611a88565b73ffffffffffffffffffffffffffffffffffffffff1660008054906101000a900473ffffffffffffffffffffffffffffffffffffffff1673ffffffffffffffffffffffffffffffffffffffff1614611801576040517f08c379a00000000000000000000000000000000000000000000000000000000081526004018080602001828103825260208152602001807f4f776e61626c653a2063616c6c6572206973206e6f7420746865206f776e657281525060200191505060405180910390fd5b80600160006101000a81548173ffffffffffffffffffffffffffffffffffffffff021916908373ffffffffffffffffffffffffffffffffffffffff1602179055507e9ed42ab11f3c83c0746a43e27b730dfa07aa0ada8a132aa26a043f18d062663382604051611872929190612330565b60405180910390a150565b611885611a88565b73ffffffffffffffffffffffffffffffffffffffff1660008054906101000a900473ffffffffffffffffffffffffffffffffffffffff1673ffffffffffffffffffffffffffffffffffffffff1614611945576040517f08c379a00000000000000000000000000000000000000000000000000000000081526004018080602001828103825260208152602001807f4f776e61626c653a2063616c6c6572206973206e6f7420746865206f776e657281525060200191505060405180910390fd5b600073ffffffffffffffffffffffffffffffffffffffff168173ffffffffffffffffffffffffffffffffffffffff1614156119cb576040517f08c379a00000000000000000000000000000000000000000000000000000000081526004018080602001828103825260268152602001806128826026913960400191505060405180910390fd5b8073ffffffffffffffffffffffffffffffffffffffff1660008054906101000a900473ffffffffffffffffffffffffffffffffffffffff1673ffffffffffffffffffffffffffffffffffffffff167f8be0079c531659141344cd1fd0a4f28419497f9722a3daafe3b4186f6b6457e060405160405180910390a3806000806101000a81548173ffffffffffffffffffffffffffffffffffffffff021916908373ffffffffffffffffffffffffffffffffffffffff16021790555050565b600033905090565b60405180608001604052806000815260200160008152602001606081526020016000151581525090565b828054600181600116156101000203166002900490600052602060002090601f016020900481019282611af05760008555611b37565b82601f10611b0957805160ff1916838001178555611b37565b82800160010185558215611b37579182015b82811115611b36578251825591602001919060010190611b1b565b5b509050611b449190611b69565b5090565b60405180606001604052806000815260200160608152602001606081525090565b5b80821115611b82576000816000905550600101611b6a565b5090565b600081359050611b958161283c565b92915050565b600081359050611baa81612853565b92915050565b600082601f830112611bc157600080fd5b8135611bd4611bcf826126c9565b612698565b91508082526020830160208301858383011115611bf057600080fd5b611bfb8382846127e7565b50505092915050565b600081359050611c138161286a565b92915050565b600060208284031215611c2b57600080fd5b6000611c3984828501611b86565b91505092915050565b600060208284031215611c5457600080fd5b6000611c6284828501611b9b565b91505092915050565b60008060408385031215611c7e57600080fd5b600083013567ffffffffffffffff811115611c9857600080fd5b611ca485828601611bb0565b925050602083013567ffffffffffffffff811115611cc157600080fd5b611ccd85828601611bb0565b9150509250929050565b600060208284031215611ce957600080fd5b6000611cf784828501611c04565b91505092915050565b60008060408385031215611d1357600080fd5b6000611d2185828601611c04565b9250506020611d3285828601611b86565b9150509250929050565b60008060008060808587031215611d5257600080fd5b6000611d6087828801611c04565b9450506020611d7187828801611b9b565b9350506040611d8287828801611c04565b925050606085013567ffffffffffffffff811115611d9f57600080fd5b611dab87828801611bb0565b91505092959194509250565b6000611dc38383612294565b905092915050565b611dd4816127b1565b82525050565b611de38161275f565b82525050565b6000611df482612709565b611dfe818561272c565b935083602082028501611e10856126f9565b8060005b85811015611e4c5784840389528151611e2d8582611db7565b9450611e388361271f565b925060208a01995050600181019050611e14565b50829750879550505050505092915050565b611e6781612771565b82525050565b611e7681612771565b82525050565b6000611e8782612714565b611e91818561273d565b9350611ea18185602086016127f6565b611eaa8161282b565b840191505092915050565b6000611ec082612714565b611eca818561274e565b9350611eda8185602086016127f6565b611ee38161282b565b840191505092915050565b6000611efb60198361274e565b91507f73656c6c65722070726f6475637420636f756e742069732030000000000000006000830152602082019050919050565b6000611f3b601b8361274e565b91507f596f7520646f206e6f74206f776e20746869732070726f6475637400000000006000830152602082019050919050565b6000611f7b601e8361274e565b91507f53656c6c6572206d69676874206e6f74206265207265676973746572656400006000830152602082019050919050565b6000611fbb60178361274e565b91507f70726f6475637420697320616c726561647920736f6c640000000000000000006000830152602082019050919050565b6000611ffb60198361274e565b91507f50726f647563742069642069732075736564206265666f7265000000000000006000830152602082019050919050565b600061203b60238361274e565b91507f4275796572206973206e6f74207265676973746572656420617320612073656c60008301527f6c657200000000000000000000000000000000000000000000000000000000006020830152604082019050919050565b60006120a1600b8361274e565b91507f4e6f2070726f64756374730000000000000000000000000000000000000000006000830152602082019050919050565b60006120e160198361274e565b91507f596f7520617265206e6f74207369646520636f6e7472616374000000000000006000830152602082019050919050565b6000612121601c8361274e565b91507f596f7520616c7265616479206f776e20746869732070726f64756374000000006000830152602082019050919050565b6000612161601a8361274e565b91507f596f752061726520616c726561647920726567697374657265640000000000006000830152602082019050919050565b60006121a160118361274e565b91507f596f75206f776e20302070726f647563740000000000000000000000000000006000830152602082019050919050565b60006121e1601b8361274e565b91507f536563726574206964206973207363616e6e6564206265666f726500000000006000830152602082019050919050565b6000612221601c8361274e565b91507f7369646520636f6e7472616374206973206e6f742073657420796574000000006000830152602082019050919050565b600061226160188361274e565b91507f5365637265742069642069732075736564206265666f726500000000000000006000830152602082019050919050565b60006080830160008301516122ac60008601826122f7565b5060208301516122bf60208601826122f7565b50604083015184820360408601526122d78282611e7c565b91505060608301516122ec6060860182611e5e565b508091505092915050565b612300816127a7565b82525050565b61230f816127a7565b82525050565b600060208201905061232a6000830184611dda565b92915050565b60006040820190506123456000830185611dcb565b6123526020830184611dda565b9392505050565b600060208201905081810360008301526123738184611de9565b905092915050565b60006020820190506123906000830184611e6d565b92915050565b600060208201905081810360008301526123b08184611eb5565b905092915050565b600060408201905081810360008301526123d28185611eb5565b90506123e16020830184611dcb565b9392505050565b600060408201905081810360008301526124028185611eb5565b905081810360208301526124168184611eb5565b90509392505050565b600060608201905081810360008301526124398186611eb5565b90506124486020830185612306565b6124556040830184611e6d565b949350505050565b6000602082019050818103600083015261247681611eee565b9050919050565b6000602082019050818103600083015261249681611f2e565b9050919050565b600060208201905081810360008301526124b681611f6e565b9050919050565b600060208201905081810360008301526124d681611fae565b9050919050565b600060208201905081810360008301526124f681611fee565b9050919050565b600060208201905081810360008301526125168161202e565b9050919050565b6000602082019050818103600083015261253681612094565b9050919050565b60006020820190508181036000830152612556816120d4565b9050919050565b6000602082019050818103600083015261257681612114565b9050919050565b6000602082019050818103600083015261259681612154565b9050919050565b600060208201905081810360008301526125b681612194565b9050919050565b600060208201905081810360008301526125d6816121d4565b9050919050565b600060208201905081810360008301526125f681612214565b9050919050565b6000602082019050818103600083015261261681612254565b9050919050565b60006020820190506126326000830184612306565b92915050565b600060408201905061264d6000830185612306565b61265a6020830184611dcb565b9392505050565b60006060820190506126766000830186612306565b6126836020830185611dcb565b6126906040830184611dda565b949350505050565b6000604051905081810181811067ffffffffffffffff821117156126bf576126be612829565b5b8060405250919050565b600067ffffffffffffffff8211156126e4576126e3612829565b5b601f19601f8301169050602081019050919050565b6000819050602082019050919050565b600081519050919050565b600081519050919050565b6000602082019050919050565b600082825260208201905092915050565b600082825260208201905092915050565b600082825260208201905092915050565b600061276a82612787565b9050919050565b60008115159050919050565b6000819050919050565b600073ffffffffffffffffffffffffffffffffffffffff82169050919050565b6000819050919050565b60006127bc826127c3565b9050919050565b60006127ce826127d5565b9050919050565b60006127e082612787565b9050919050565b82818337600083830152505050565b60005b838110156128145780820151818401526020810190506127f9565b83811115612823576000848401525b50505050565bfe5b6000601f19601f8301169050919050565b6128458161275f565b811461285057600080fd5b50565b61285c8161277d565b811461286757600080fd5b50565b612873816127a7565b811461287e57600080fd5b5056fe4f776e61626c653a206e6577206f776e657220697320746865207a65726f2061646472657373a264697066735822122088543dcf9630deb05dd91c0476e33d4c6faed6447aa8879b3a0f88cd596aa4ca64736f6c63430007040033",
  "immutableReferences": {},
  "source": "// SPDX-License-Identifier: MIT\npragma solidity >=0.7.0;\npragma experimental ABIEncoderV2;\nimport \"./Ownable.sol\";\n\n//register owner as seller first\n\ncontract Counterfeit is Ownable {\n    address private sideContract = address(0);\n\n    constructor() {\n        products.push(Product(0, 0, \"dummyProduct\", true));\n        sellers.push(sellerDetails(0, \"dummySeller\", \"dummySeller\"));\n        emit constructorSet(msg.sender);\n    }\n\n    //----------------Events----------------//\n    event constructorSet(address setter);\n    event newProductAdded(uint256 productId, address owner);\n    // event sellerReported(address sellerAddress);\n    // event sellerUnblocked(address sellerAddress);\n    event productPurchased(address buyer);\n    // event productSold(address sellerAddress);\n    event productSoldSuccessfully(\n        uint256 productId,\n        address seller,\n        address buyer\n    );\n    event productPurchasedByConsumer(uint256 productId, address buyer);\n    // event sellerRegistered(address sellerAddress);\n    event newSellerRegistered(string name, address seller);\n    event sideContractSet(address setter, address setTo);\n\n    // event allProducts(string owner);\n    // event sellerIs(uint id,string name,string details);\n    // event productIs(string name, uint price, string details, bool isSold);\n    //------------Variables---------------//\n\n    // uint256 private reportThreshold = 100;\n\n    //------------Variables End-----------//\n\n    //--------------Structs---------------//\n\n    struct Product {\n        uint256 productId;\n        uint256 price;\n        string name;\n        bool isSold;\n    }\n\n    struct sellerDetails {\n        uint256 reportCount;\n        string name;\n        string details;\n    }\n\n    //------------Structs End-------------//\n\n    //--------------Arrays----------------//\n\n    Product[] private products;\n    sellerDetails[] private sellers;\n\n    //------------Arrays End--------------//\n\n    //--------------Mappings--------------//\n\n    mapping(address => uint256) sellerAddressToSellerIndex;\n\n    //tells who is the owner of product\n    mapping(uint256 => uint256) private productIdToProductIndex;\n    mapping(bytes32 => uint256) private secretIdToProductIndex;\n\n    //who owns how many product\n    mapping(address => uint256) private ownerProductCount;\n    mapping(uint256 => bool) productIdUsedForReport;\n    mapping(uint256 => address) private productToOwner;\n\n    // //all products of a seller\n    // mapping(address => Product[]) internal allProd;\n\n    //-------------Mappings End-----------//\n\n    //-------------Modifiers--------------//\n\n    modifier sellerCheck(uint256 _productId) {\n        // check if the seller owns the product or not...\n        address productOwner = productToOwner[_productId];\n        require(msg.sender == productOwner, \"You do not own this product\");\n        _;\n    }\n\n    modifier soldCheck(uint256 _productId) {\n        // finding product index\n        uint256 productIndex = productIdToProductIndex[_productId];\n\n        // finding product from index\n        bool isSold = products[productIndex].isSold;\n\n        require(isSold == false, \"product is already sold\");\n        _;\n    }\n    modifier onlySideContract() {\n        require(msg.sender == sideContract, \"You are not side contract\");\n        require(sideContract != address(0), \"side contract is not set yet\");\n        _;\n    }\n\n    //-----------Modifiers End------------//\n\n    //------------Functions---------------//\n\n    // function unblockSeller (address _sellerAddress) onlyOwner external returns (bool){\n    //     uint sellerIndex = sellerAddressToSellerIndex[_sellerAddress];\n    //     sellers[sellerIndex].reportCount = 0;\n    //     emit sellerUnblocked(_sellerAddress);\n    //     return true;\n    // }\n    function setSideContract(address _sideContract) external onlyOwner {\n        sideContract = _sideContract;\n        emit sideContractSet(msg.sender, _sideContract);\n    }\n\n    function registerSeller(string memory _name, string memory _details)\n        external\n        returns (string memory status)\n    {\n        //checking seller is not registered before\n        require(\n            sellerAddressToSellerIndex[msg.sender] == 0,\n            \"You are already registered\"\n        );\n\n        //creating new instance and storing in array\n        sellers.push(sellerDetails(0, _name, _details));\n\n        //assingning index for future search\n        sellerAddressToSellerIndex[msg.sender] = sellers.length - 1;\n\n        emit newSellerRegistered(_name, msg.sender);\n        return \"Seller registered successfully\";\n    }\n\n    // function registerReport(uint _productId) external returns(bool) {\n    //     //one product is used once to report\n    //     require(productIdUsedForReport[_productId] == false,\"this key is already reported\");\n\n    //     address productOwner = productToOwner[_productId];\n\n    //     uint sellerIndex = sellerAddressToSellerIndex[productOwner];\n\n    //     sellers[sellerIndex].reportCount++;\n\n    //     productIdUsedForReport[_productId] = true;\n\n    //     emit sellerReported(productOwner);\n\n    //     return true;\n\n    // }\n\n    // should be called by consumers\n    function buyProduct(bytes32 _secretId)\n        external\n        onlySideContract\n        returns (bool)\n    {\n        // finding product index using secret id from the in the common storage...\n        uint256 productIndex = secretIdToProductIndex[_secretId];\n\n        // productId from product\n        uint256 productId = products[productIndex].productId;\n\n        // product current owner from productId\n        address productOwner = productToOwner[productId];\n\n        require(\n            ownerProductCount[productOwner] > 0,\n            \"seller product count is 0\"\n        );\n\n        require(\n            products[productIndex].isSold == false,\n            \"Secret id is scanned before\"\n        );\n\n        // marking product as soldi i.e. bought by consumer\n        products[productIndex].isSold = true;\n        productToOwner[productId] = address(0);\n        // reducing owner count\n        ownerProductCount[productOwner]--;\n\n        emit productPurchasedByConsumer(productId, msg.sender);\n\n        return true;\n    }\n\n    function getAllProducts() public view returns (Product[] memory) {\n        uint256 productCount = ownerProductCount[msg.sender];\n        require(productCount > 0, \"No products\");\n\n        // push method not available for memory array...\n        Product[] memory ownedProducts = new Product[](productCount);\n        uint256 j = 0;\n\n        for (uint256 i = 0; i < products.length; i++) {\n            if (productToOwner[products[i].productId] == msg.sender) {\n                ownedProducts[j] = products[i];\n                j++;\n            }\n        }\n        return ownedProducts;\n    }\n\n    // should be called for reselling\n    function sellProduct(uint256 _productId, address _buyerAddress)\n        external\n        sellerCheck(_productId)\n        soldCheck(_productId)\n        returns (bool)\n    {\n        // checking for limit\n        //cannot sell to himself\n        require(msg.sender != _buyerAddress, \"You already own this product\");\n        require(ownerProductCount[msg.sender] > 0, \"You own 0 product\");\n\n        //buyer must be registered\n        require(\n            sellerAddressToSellerIndex[_buyerAddress] != 0,\n            \"Buyer is not registered as a seller\"\n        );\n\n        //if reports greater than certain threshold block them\n        // uint buyerIndex = sellerAddressToSellerIndex[_buyerAddress];\n        // require(sellers[buyerIndex].reportCount < reportThreshold,\"The account is blocked\");\n\n        // ---- block checking for seller is left??\n\n        // changing owner of product here\n        productToOwner[_productId] = _buyerAddress;\n\n        // changing limit\n        ownerProductCount[msg.sender]--;\n        ownerProductCount[_buyerAddress]++;\n\n        emit productSoldSuccessfully(_productId, msg.sender, _buyerAddress);\n\n        return true;\n    }\n\n    function addProduct(\n        uint256 _productId,\n        bytes32 _secretId,\n        uint256 _price,\n        string memory _name\n    ) external onlyOwner returns (bool) {\n        // checking that both product and secret ids are not used before\n        require(\n            productIdToProductIndex[_productId] == 0,\n            \"Product id is used before\"\n        );\n        require(\n            secretIdToProductIndex[_secretId] == 0,\n            \"Secret id is used before\"\n        );\n\n        //assigning owner to the one who initiated the call...\n        productToOwner[_productId] = msg.sender;\n        ownerProductCount[msg.sender]++;\n\n        //addint product to products array\n        products.push(Product(_productId, _price, _name, false));\n\n        // allProd[msg.sender].push(Product(_productId, _price, _name, _details, false));\n        //setting index in mappings\n        productIdToProductIndex[_productId] = products.length - 1;\n        secretIdToProductIndex[_secretId] = products.length - 1;\n\n        emit newProductAdded(_productId, msg.sender);\n\n        return true;\n    }\n\n    function productSeller(uint256 _productId)\n        external\n        view\n        returns (string memory name, string memory details)\n    {\n        address sellerAddress = productToOwner[_productId];\n        uint256 sellerIndex = sellerAddressToSellerIndex[sellerAddress];\n        require(sellerIndex != 0, \"Seller might not be registered\");\n        // require(sellers[sellerIndex].reportCount < reportThreshold,\"seller is blocked\");\n\n        sellerDetails memory seller = sellers[sellerIndex];\n        return (seller.name, seller.details);\n    }\n\n    function productDetails(uint256 _productId)\n        external\n        view\n        returns (\n            string memory name,\n            uint256 price,\n            bool isSold\n        )\n    {\n        uint256 index = productIdToProductIndex[_productId];\n        Product memory tP = products[index];\n        return (tP.name, tP.price, tP.isSold);\n    }\n\n    //----------Functions End-------------//\n\n    //----------Dev Only Owner-------------//\n\n    function productLength()\n        public\n        view\n        onlyOwner\n        returns (uint256 _productArrayLength)\n    {\n        return products.length;\n    }\n\n    function sellersLength()\n        public\n        view\n        onlyOwner\n        returns (uint256 _sellerArrayLength)\n    {\n        return sellers.length;\n    }\n\n    // function registerOwnerAsSeller (string memory _name, string memory _details) onlyOwner external returns(string memory status ) {\n\n    //     //checking seller is not registered before\n    //     require(sellerAddressToSellerIndex[msg.sender] == 0,\"You are already registered\");\n\n    //     //creating new instance and storing in array\n    //     sellers.push(sellerDetails(0,_name,_details));\n\n    //     //assingning index for future search\n    //     sellerAddressToSellerIndex[msg.sender] = sellers.length - 1;\n\n    //     emit sellerRegistered(msg.sender);\n    //     return \"Seller registered successfully\";\n    // }\n    //--------Dev Only Owner End----------//\n}\n",
  "sourcePath": "C:\\Users\\BornPsych\\Documents\\GITHUB\\Project Phase\\counterfeit-product-detection-main\\contracts\\Counterfeit.sol",
  "compiler": {
    "name": "solc",
    "version": "0.7.4+commit.3f05b770.Emscripten.clang"
  },
  "schemaVersion": "3.4.10",
  "updatedAt": "2022-11-01T19:51:05.918Z",
  "networkType": "ethereum",
  "devdoc": {
    "kind": "dev",
    "methods": {
      "owner()": {
        "details": "Returns the address of the current owner."
      },
      "transferOwnership(address)": {
        "details": "Transfers ownership of the contract to a new account (`newOwner`). Can only be called by the current owner."
      }
    },
    "version": 1
  },
  "userdoc": {
    "kind": "user",
    "methods": {},
    "version": 1
  }
}