{
  "contractName": "CounterfeitInterphase",
  "abi": [
    {
      "inputs": [
        {
          "internalType": "bytes32",
          "name": "_secretId",
          "type": "bytes32"
        }
      ],
      "name": "buyProduct",
      "outputs": [
        {
          "internalType": "bool",
          "name": "",
          "type": "bool"
        }
      ],
      "stateMutability": "nonpayable",
      "type": "function"
    }
  ],
  "bytecode": "0x6080604052348015600f57600080fd5b5060ab8061001e6000396000f3fe6080604052348015600f57600080fd5b506004361060285760003560e01c8063943a4dfc14602d575b600080fd5b605660048036036020811015604157600080fd5b8101908080359060200190929190505050606e565b60405180821515815260200191505060405180910390f35b600091905056fea2646970667358221220dca7491b5f4d557a93a30e563a0c75308fc15fddb633acdbfec4fd4d9c5757a764736f6c63430007040033",
  "immutableReferences": {},
  "source": "// SPDX-License-Identifier: MIT\npragma solidity >=0.7.0;\n\ncontract CounterfeitInterphase{\n    function buyProduct(bytes32 _secretId) external returns(bool) {}\n}\n\ncontract Buy{\n    \n    event productPurchased(address buyerAddress);\n    event MainContractSet(address mainContractAddress);\n    event OwnerChainged(address caller, address newOwner);\n    event constructorSet(address owner);\n\n    address private owner;\n    CounterfeitInterphase C;\n\n    constructor(){\n        owner = msg.sender;\n        emit constructorSet(owner);\n    }\n    modifier onlyOwner(){\n        require(msg.sender == owner,\"You can not set maincontract address\");\n        _;\n    }\n    function setMainContract( address _address) onlyOwner external {\n        C = CounterfeitInterphase(_address);\n        emit MainContractSet(_address);\n    }\n    function changeOwner(address _newOwner) onlyOwner external{\n        owner = _newOwner;\n        emit OwnerChainged(msg.sender,_newOwner);\n    }\n\n    function buyProduct(uint256 _secretId) external {\n        bytes32 hash = keccak256(abi.encodePacked(_secretId));\n        C.buyProduct(hash);\n        emit productPurchased(msg.sender);\n    }\n\n}\n",
  "sourcePath": "C:\\Users\\BornPsych\\Documents\\GITHUB\\Project Phase\\counterfeit-product-detection-main\\contracts\\Buy.sol",
  "compiler": {
    "name": "solc",
    "version": "0.7.4+commit.3f05b770.Emscripten.clang"
  },
  "schemaVersion": "3.4.10",
  "updatedAt": "2022-11-01T19:50:38.354Z",
  "devdoc": {
    "kind": "dev",
    "methods": {},
    "version": 1
  },
  "userdoc": {
    "kind": "user",
    "methods": {},
    "version": 1
  }
}